S01800004763634170706C69636174696F6E33362E7372656322
S11300000C942A000C9434000C9434000C943400A6
S11300100C9434000C9434000C9434000C9434008C
S11300200C9434000C9434000C9434000C9434007C
S11300300C9434000C9434000C9434000C9434006C
S11300400C9434000C9434000C9434000C9434005C
S11300500C94340011241FBECFE5D8E0DEBFCDBF21
S11300600E9436000C9441000C940000BB98C39A83
S1130070B89AC098B399FECFC09AB39BFECFC098EC
S1090080F9CFF894FFCF54
S9030000FC
